{
  "_format": "hh-sol-artifact-1",
  "contractName": "AutoDAO",
  "sourceName": "contracts/AutoDAO.sol",
  "abi": [
    {
      "inputs": [
        {
          "internalType": "string",
          "name": "_daoName",
          "type": "string"
        }
      ],
      "stateMutability": "nonpayable",
      "type": "constructor"
    },
    {
      "inputs": [
        {
          "internalType": "string",
          "name": "proposal",
          "type": "string"
        }
      ],
      "name": "addProposal",
      "outputs": [],
      "stateMutability": "nonpayable",
      "type": "function"
    },
    {
      "inputs": [],
      "name": "admin",
      "outputs": [
        {
          "internalType": "address",
          "name": "",
          "type": "address"
        }
      ],
      "stateMutability": "view",
      "type": "function"
    },
    {
      "inputs": [],
      "name": "daoName",
      "outputs": [
        {
          "internalType": "string",
          "name": "",
          "type": "string"
        }
      ],
      "stateMutability": "view",
      "type": "function"
    },
    {
      "inputs": [],
      "name": "getProposals",
      "outputs": [
        {
          "internalType": "string[]",
          "name": "",
          "type": "string[]"
        }
      ],
      "stateMutability": "view",
      "type": "function"
    },
    {
      "inputs": [
        {
          "internalType": "uint256",
          "name": "",
          "type": "uint256"
        }
      ],
      "name": "proposals",
      "outputs": [
        {
          "internalType": "string",
          "name": "",
          "type": "string"
        }
      ],
      "stateMutability": "view",
      "type": "function"
    }
  ],
  "bytecode": "0x608060405234801561001057600080fd5b50604051611064380380611064833981810160405281019061003291906101fd565b336000806101000a81548173ffffffffffffffffffffffffffffffffffffffff021916908373ffffffffffffffffffffffffffffffffffffffff16021790555080600190816100819190610467565b5050610539565b6000604051905090565b600080fd5b600080fd5b600080fd5b600080fd5b6000601f19601f8301169050919050565b7f4e487b7100000000000000000000000000000000000000000000000000000000600052604160045260246000fd5b6100ef826100a6565b810181811067ffffffffffffffff8211171561010e5761010d6100b7565b5b80604052505050565b6000610121610088565b905061012d82826100e6565b919050565b600067ffffffffffffffff82111561014d5761014c6100b7565b5b610156826100a6565b9050602081019050919050565b60005b83811015610181578082015181840152602081019050610166565b60008484015250505050565b60006101a061019b84610132565b610117565b9050828152602081018484840111156101bc576101bb6100a1565b5b6101c7848285610163565b509392505050565b600082601f8301126101e4576101e361009c565b5b81516101f484826020860161018d565b91505092915050565b60006020828403121561021357610212610092565b5b600082015167ffffffffffffffff81111561023157610230610097565b5b61023d848285016101cf565b91505092915050565b600081519050919050565b7f4e487b7100000000000000000000000000000000000000000000000000000000600052602260045260246000fd5b6000600282049050600182168061029857607f821691505b6020821081036102ab576102aa610251565b5b50919050565b60008190508160005260206000209050919050565b60006020601f8301049050919050565b600082821b905092915050565b6000600883026103137fffffffffffffffffffffffffffffffffffffffffffffffffffffffffffffffff826102d6565b61031d86836102d6565b95508019841693508086168417925050509392505050565b6000819050919050565b6000819050919050565b600061036461035f61035a84610335565b61033f565b610335565b9050919050565b6000819050919050565b61037e83610349565b61039261038a8261036b565b8484546102e3565b825550505050565b600090565b6103a761039a565b6103b2818484610375565b505050565b5b818110156103d6576103cb60008261039f565b6001810190506103b8565b5050565b601f82111561041b576103ec816102b1565b6103f5846102c6565b81016020851015610404578190505b610418610410856102c6565b8301826103b7565b50505b505050565b600082821c905092915050565b600061043e60001984600802610420565b1980831691505092915050565b6000610457838361042d565b9150826002028217905092915050565b61047082610246565b67ffffffffffffffff811115610489576104886100b7565b5b6104938254610280565b61049e8282856103da565b600060209050601f8311600181146104d157600084156104bf578287015190505b6104c9858261044b565b865550610531565b601f1984166104df866102b1565b60005b82811015610507578489015182556001820191506020850194506020810190506104e2565b868310156105245784890151610520601f89168261042d565b8355505b6001600288020188555050505b505050505050565b610b1c806105486000396000f3fe608060405234801561001057600080fd5b50600436106100575760003560e01c8063013cf08b1461005c5780632fdae3c51461008c57806348976936146100a857806362564c48146100c6578063f851a440146100e4575b600080fd5b61007660048036038101906100719190610449565b610102565b6040516100839190610506565b60405180910390f35b6100a660048036038101906100a1919061058d565b6101ae565b005b6100b061027e565b6040516100bd9190610506565b60405180910390f35b6100ce61030c565b6040516100db91906106e6565b60405180910390f35b6100ec6103e5565b6040516100f99190610749565b60405180910390f35b6002818154811061011257600080fd5b90600052602060002001600091509050805461012d90610793565b80601f016020809104026020016040519081016040528092919081815260200182805461015990610793565b80156101a65780601f1061017b576101008083540402835291602001916101a6565b820191906000526020600020905b81548152906001019060200180831161018957829003601f168201915b505050505081565b60008054906101000a900473ffffffffffffffffffffffffffffffffffffffff1673ffffffffffffffffffffffffffffffffffffffff163373ffffffffffffffffffffffffffffffffffffffff161461023c576040517f08c379a000000000000000000000000000000000000000000000000000000000815260040161023390610810565b60405180910390fd5b6002828290918060018154018082558091505060019003906000526020600020016000909192909192909192909192509182610279929190610a16565b505050565b6001805461028b90610793565b80601f01602080910402602001604051908101604052809291908181526020018280546102b790610793565b80156103045780601f106102d957610100808354040283529160200191610304565b820191906000526020600020905b8154815290600101906020018083116102e757829003601f168201915b505050505081565b60606002805480602002602001604051908101604052809291908181526020016000905b828210156103dc57838290600052602060002001805461034f90610793565b80601f016020809104026020016040519081016040528092919081815260200182805461037b90610793565b80156103c85780601f1061039d576101008083540402835291602001916103c8565b820191906000526020600020905b8154815290600101906020018083116103ab57829003601f168201915b505050505081526020019060010190610330565b50505050905090565b60008054906101000a900473ffffffffffffffffffffffffffffffffffffffff1681565b600080fd5b600080fd5b6000819050919050565b61042681610413565b811461043157600080fd5b50565b6000813590506104438161041d565b92915050565b60006020828403121561045f5761045e610409565b5b600061046d84828501610434565b91505092915050565b600081519050919050565b600082825260208201905092915050565b60005b838110156104b0578082015181840152602081019050610495565b60008484015250505050565b6000601f19601f8301169050919050565b60006104d882610476565b6104e28185610481565b93506104f2818560208601610492565b6104fb816104bc565b840191505092915050565b6000602082019050818103600083015261052081846104cd565b905092915050565b600080fd5b600080fd5b600080fd5b60008083601f84011261054d5761054c610528565b5b8235905067ffffffffffffffff81111561056a5761056961052d565b5b60208301915083600182028301111561058657610585610532565b5b9250929050565b600080602083850312156105a4576105a3610409565b5b600083013567ffffffffffffffff8111156105c2576105c161040e565b5b6105ce85828601610537565b92509250509250929050565b600081519050919050565b600082825260208201905092915050565b6000819050602082019050919050565b600082825260208201905092915050565b600061062282610476565b61062c8185610606565b935061063c818560208601610492565b610645816104bc565b840191505092915050565b600061065c8383610617565b905092915050565b6000602082019050919050565b600061067c826105da565b61068681856105e5565b935083602082028501610698856105f6565b8060005b858110156106d457848403895281516106b58582610650565b94506106c083610664565b925060208a0199505060018101905061069c565b50829750879550505050505092915050565b600060208201905081810360008301526107008184610671565b905092915050565b600073ffffffffffffffffffffffffffffffffffffffff82169050919050565b600061073382610708565b9050919050565b61074381610728565b82525050565b600060208201905061075e600083018461073a565b92915050565b7f4e487b7100000000000000000000000000000000000000000000000000000000600052602260045260246000fd5b600060028204905060018216806107ab57607f821691505b6020821081036107be576107bd610764565b5b50919050565b7f4f6e6c792061646d696e2063616e206164642070726f706f73616c7300000000600082015250565b60006107fa601c83610481565b9150610805826107c4565b602082019050919050565b60006020820190508181036000830152610829816107ed565b9050919050565b600082905092915050565b7f4e487b7100000000000000000000000000000000000000000000000000000000600052604160045260246000fd5b60008190508160005260206000209050919050565b60006020601f8301049050919050565b600082821b905092915050565b6000600883026108cc7fffffffffffffffffffffffffffffffffffffffffffffffffffffffffffffffff8261088f565b6108d6868361088f565b95508019841693508086168417925050509392505050565b6000819050919050565b600061091361090e61090984610413565b6108ee565b610413565b9050919050565b6000819050919050565b61092d836108f8565b6109416109398261091a565b84845461089c565b825550505050565b600090565b610956610949565b610961818484610924565b505050565b5b818110156109855761097a60008261094e565b600181019050610967565b5050565b601f8211156109ca5761099b8161086a565b6109a48461087f565b810160208510156109b3578190505b6109c76109bf8561087f565b830182610966565b50505b505050565b600082821c905092915050565b60006109ed600019846008026109cf565b1980831691505092915050565b6000610a0683836109dc565b9150826002028217905092915050565b610a208383610830565b67ffffffffffffffff811115610a3957610a3861083b565b5b610a438254610793565b610a4e828285610989565b6000601f831160018114610a7d5760008415610a6b578287013590505b610a7585826109fa565b865550610add565b601f198416610a8b8661086a565b60005b82811015610ab357848901358255600182019150602085019450602081019050610a8e565b86831015610ad05784890135610acc601f8916826109dc565b8355505b6001600288020188555050505b5050505050505056fea2646970667358221220c4f98af9bef427d4605d920285c5f80b8a23e10da569068c190590ad647e84bc64736f6c634300081c0033",
  "linkReferences": {},
  "deployedLinkReferences": {}
}